{
  "contractName": "ownwership",
  "abi": [
    {
      "inputs": [
        {
          "internalType": "address",
          "name": "product_contract",
          "type": "address"
        }
      ],
      "stateMutability": "nonpayable",
      "type": "constructor"
    },
    {
      "anonymous": false,
      "inputs": [
        {
          "indexed": true,
          "internalType": "bytes32",
          "name": "p",
          "type": "bytes32"
        },
        {
          "indexed": true,
          "internalType": "address",
          "name": "account",
          "type": "address"
        }
      ],
      "name": "TransferPartOwnership",
      "type": "event"
    },
    {
      "anonymous": false,
      "inputs": [
        {
          "indexed": true,
          "internalType": "bytes32",
          "name": "p",
          "type": "bytes32"
        },
        {
          "indexed": true,
          "internalType": "address",
          "name": "account",
          "type": "address"
        }
      ],
      "name": "TransferProductOwnership",
      "type": "event"
    },
    {
      "inputs": [
        {
          "internalType": "bytes32",
          "name": "",
          "type": "bytes32"
        }
      ],
      "name": "currentPartOwner",
      "outputs": [
        {
          "internalType": "address",
          "name": "",
          "type": "address"
        }
      ],
      "stateMutability": "view",
      "type": "function",
      "constant": true
    },
    {
      "inputs": [
        {
          "internalType": "bytes32",
          "name": "",
          "type": "bytes32"
        }
      ],
      "name": "currentProductOwner",
      "outputs": [
        {
          "internalType": "address",
          "name": "",
          "type": "address"
        }
      ],
      "stateMutability": "view",
      "type": "function",
      "constant": true
    },
    {
      "inputs": [
        {
          "internalType": "uint256",
          "name": "op_type",
          "type": "uint256"
        },
        {
          "internalType": "bytes32",
          "name": "p_hash",
          "type": "bytes32"
        }
      ],
      "name": "add_ownership",
      "outputs": [
        {
          "internalType": "bool",
          "name": "sucess",
          "type": "bool"
        }
      ],
      "stateMutability": "nonpayable",
      "type": "function"
    },
    {
      "inputs": [
        {
          "internalType": "uint256",
          "name": "op_type",
          "type": "uint256"
        },
        {
          "internalType": "bytes32",
          "name": "p_hash",
          "type": "bytes32"
        },
        {
          "internalType": "address",
          "name": "to",
          "type": "address"
        }
      ],
      "name": "changeOwnership",
      "outputs": [
        {
          "internalType": "bool",
          "name": "sucess",
          "type": "bool"
        }
      ],
      "stateMutability": "nonpayable",
      "type": "function"
    },
    {
      "inputs": [
        {
          "internalType": "bytes32",
          "name": "P",
          "type": "bytes32"
        }
      ],
      "name": "currentowner",
      "outputs": [
        {
          "internalType": "address",
          "name": "",
          "type": "address"
        }
      ],
      "stateMutability": "view",
      "type": "function",
      "constant": true
    }
  ],
  "bytecode": "0x60806040523480156200001157600080fd5b50604051620014c7380380620014c78339818101604052810190620000379190620000e9565b80600260006101000a81548173ffffffffffffffffffffffffffffffffffffffff021916908373ffffffffffffffffffffffffffffffffffffffff160217905550506200011b565b600080fd5b600073ffffffffffffffffffffffffffffffffffffffff82169050919050565b6000620000b18262000084565b9050919050565b620000c381620000a4565b8114620000cf57600080fd5b50565b600081519050620000e381620000b8565b92915050565b6000602082840312156200010257620001016200007f565b5b60006200011284828501620000d2565b91505092915050565b61139c806200012b6000396000f3fe608060405234801561001057600080fd5b50600436106100575760003560e01c806379ab6eba1461005c578063978011bd1461008c578063ac814490146100bc578063df247896146100ec578063f0fddc941461011c575b600080fd5b61007660048036038101906100719190610b71565b61014c565b6040516100839190610bdf565b60405180910390f35b6100a660048036038101906100a19190610c30565b61017f565b6040516100b39190610c8b565b60405180910390f35b6100d660048036038101906100d19190610cd2565b61067a565b6040516100e39190610c8b565b60405180910390f35b61010660048036038101906101019190610b71565b610ab8565b6040516101139190610bdf565b60405180910390f35b61013660048036038101906101319190610b71565b610af4565b6040516101439190610bdf565b60405180910390f35b60006020528060005260406000206000915054906101000a900473ffffffffffffffffffffffffffffffffffffffff1681565b600080600181111561019457610193610d25565b5b83036103f9576000600260009054906101000a900473ffffffffffffffffffffffffffffffffffffffff1673ffffffffffffffffffffffffffffffffffffffff16637281a039846040518263ffffffff1660e01b81526004016101f79190610d63565b600060405180830381865afa158015610214573d6000803e3d6000fd5b505050506040513d6000823e3d601f19601f8201168201806040525081019061023d9190610f12565b9091925090915090505080915050600073ffffffffffffffffffffffffffffffffffffffff1660008085815260200190815260200160002060009054906101000a900473ffffffffffffffffffffffffffffffffffffffff1673ffffffffffffffffffffffffffffffffffffffff16146102ec576040517f08c379a00000000000000000000000000000000000000000000000000000000081526004016102e39061103e565b60405180910390fd5b3373ffffffffffffffffffffffffffffffffffffffff168173ffffffffffffffffffffffffffffffffffffffff161461035a576040517f08c379a0000000000000000000000000000000000000000000000000000000008152600401610351906110aa565b60405180910390fd5b3360008085815260200190815260200160002060006101000a81548173ffffffffffffffffffffffffffffffffffffffff021916908373ffffffffffffffffffffffffffffffffffffffff1602179055503373ffffffffffffffffffffffffffffffffffffffff16837f6a67eae68bb9deea9cbb16299fce22702092dc03cbcfd6a7babc7ac0036c7d4b60405160405180910390a36001915050610674565b60018081111561040c5761040b610d25565b5b8303610673576000600260009054906101000a900473ffffffffffffffffffffffffffffffffffffffff1673ffffffffffffffffffffffffffffffffffffffff1663b224149c846040518263ffffffff1660e01b815260040161046f9190610d63565b600060405180830381865afa15801561048c573d6000803e3d6000fd5b505050506040513d6000823e3d601f19601f820116820180604052508101906104b59190610f12565b9091925090915090505080915050600073ffffffffffffffffffffffffffffffffffffffff166001600085815260200190815260200160002060009054906101000a900473ffffffffffffffffffffffffffffffffffffffff1673ffffffffffffffffffffffffffffffffffffffff1614610565576040517f08c379a000000000000000000000000000000000000000000000000000000000815260040161055c9061103e565b60405180910390fd5b3373ffffffffffffffffffffffffffffffffffffffff168173ffffffffffffffffffffffffffffffffffffffff16146105d3576040517f08c379a00000000000000000000000000000000000000000000000000000000081526004016105ca906110aa565b60405180910390fd5b336001600085815260200190815260200160002060006101000a81548173ffffffffffffffffffffffffffffffffffffffff021916908373ffffffffffffffffffffffffffffffffffffffff1602179055503373ffffffffffffffffffffffffffffffffffffffff16837fe2d5b74efaa0dc370d71f08be6bc6c865613194b7345262a998fb5232622c0b260405160405180910390a36001915050610674565b5b92915050565b600080600181111561068f5761068e610d25565b5b84036107d3573373ffffffffffffffffffffffffffffffffffffffff1660008085815260200190815260200160002060009054906101000a900473ffffffffffffffffffffffffffffffffffffffff1673ffffffffffffffffffffffffffffffffffffffff1614610735576040517f08c379a000000000000000000000000000000000000000000000000000000000815260040161072c90611116565b60405180910390fd5b8160008085815260200190815260200160002060006101000a81548173ffffffffffffffffffffffffffffffffffffffff021916908373ffffffffffffffffffffffffffffffffffffffff1602179055508173ffffffffffffffffffffffffffffffffffffffff16837f6a67eae68bb9deea9cbb16299fce22702092dc03cbcfd6a7babc7ac0036c7d4b60405160405180910390a360019050610ab1565b6001808111156107e6576107e5610d25565b5b8403610ab0573373ffffffffffffffffffffffffffffffffffffffff166001600085815260200190815260200160002060009054906101000a900473ffffffffffffffffffffffffffffffffffffffff1673ffffffffffffffffffffffffffffffffffffffff161461088d576040517f08c379a0000000000000000000000000000000000000000000000000000000008152600401610884906111a8565b60405180910390fd5b816001600085815260200190815260200160002060006101000a81548173ffffffffffffffffffffffffffffffffffffffff021916908373ffffffffffffffffffffffffffffffffffffffff1602179055508173ffffffffffffffffffffffffffffffffffffffff16837fe2d5b74efaa0dc370d71f08be6bc6c865613194b7345262a998fb5232622c0b260405160405180910390a36000600260009054906101000a900473ffffffffffffffffffffffffffffffffffffffff1673ffffffffffffffffffffffffffffffffffffffff16636e730329856040518263ffffffff1660e01b81526004016109809190610d63565b60c060405180830381865afa15801561099d573d6000803e3d6000fd5b505050506040513d601f19601f820116820180604052508101906109c19190611293565b905060005b6006811015610aa557836000808484600681106109e6576109e56112c0565b5b6020020151815260200190815260200160002060006101000a81548173ffffffffffffffffffffffffffffffffffffffff021916908373ffffffffffffffffffffffffffffffffffffffff1602179055508373ffffffffffffffffffffffffffffffffffffffff16828260068110610a6157610a606112c0565b5b60200201517f6a67eae68bb9deea9cbb16299fce22702092dc03cbcfd6a7babc7ac0036c7d4b60405160405180910390a38080610a9d9061131e565b9150506109c6565b506001915050610ab1565b5b9392505050565b600080600083815260200190815260200160002060009054906101000a900473ffffffffffffffffffffffffffffffffffffffff169050919050565b60016020528060005260406000206000915054906101000a900473ffffffffffffffffffffffffffffffffffffffff1681565b6000604051905090565b600080fd5b600080fd5b6000819050919050565b610b4e81610b3b565b8114610b5957600080fd5b50565b600081359050610b6b81610b45565b92915050565b600060208284031215610b8757610b86610b31565b5b6000610b9584828501610b5c565b91505092915050565b600073ffffffffffffffffffffffffffffffffffffffff82169050919050565b6000610bc982610b9e565b9050919050565b610bd981610bbe565b82525050565b6000602082019050610bf46000830184610bd0565b92915050565b6000819050919050565b610c0d81610bfa565b8114610c1857600080fd5b50565b600081359050610c2a81610c04565b92915050565b60008060408385031215610c4757610c46610b31565b5b6000610c5585828601610c1b565b9250506020610c6685828601610b5c565b9150509250929050565b60008115159050919050565b610c8581610c70565b82525050565b6000602082019050610ca06000830184610c7c565b92915050565b610caf81610bbe565b8114610cba57600080fd5b50565b600081359050610ccc81610ca6565b92915050565b600080600060608486031215610ceb57610cea610b31565b5b6000610cf986828701610c1b565b9350506020610d0a86828701610b5c565b9250506040610d1b86828701610cbd565b9150509250925092565b7f4e487b7100000000000000000000000000000000000000000000000000000000600052602160045260246000fd5b610d5d81610b3b565b82525050565b6000602082019050610d786000830184610d54565b92915050565b600081519050610d8d81610ca6565b92915050565b600080fd5b600080fd5b6000601f19601f8301169050919050565b7f4e487b7100000000000000000000000000000000000000000000000000000000600052604160045260246000fd5b610de682610d9d565b810181811067ffffffffffffffff82111715610e0557610e04610dae565b5b80604052505050565b6000610e18610b27565b9050610e248282610ddd565b919050565b600067ffffffffffffffff821115610e4457610e43610dae565b5b610e4d82610d9d565b9050602081019050919050565b60005b83811015610e78578082015181840152602081019050610e5d565b83811115610e87576000848401525b50505050565b6000610ea0610e9b84610e29565b610e0e565b905082815260208101848484011115610ebc57610ebb610d98565b5b610ec7848285610e5a565b509392505050565b600082601f830112610ee457610ee3610d93565b5b8151610ef4848260208601610e8d565b91505092915050565b600081519050610f0c81610c04565b92915050565b600080600080600060a08688031215610f2e57610f2d610b31565b5b6000610f3c88828901610d7e565b955050602086015167ffffffffffffffff811115610f5d57610f5c610b36565b5b610f6988828901610ecf565b945050604086015167ffffffffffffffff811115610f8a57610f89610b36565b5b610f9688828901610ecf565b935050606086015167ffffffffffffffff811115610fb757610fb6610b36565b5b610fc388828901610ecf565b9250506080610fd488828901610efd565b9150509295509295909350565b600082825260208201905092915050565b7f7061727420697320616c72656164792072656769737465726564000000000000600082015250565b6000611028601a83610fe1565b915061103382610ff2565b602082019050919050565b600060208201905081810360008301526110578161101b565b9050919050565b7f7061727420776173206e6f74206d616465206279207265717565737465720000600082015250565b6000611094601e83610fe1565b915061109f8261105e565b602082019050919050565b600060208201905081810360008301526110c381611087565b9050919050565b7f50617274206973206e6f74206f776e6564206279207265717565737465720000600082015250565b6000611100601e83610fe1565b915061110b826110ca565b602082019050919050565b6000602082019050818103600083015261112f816110f3565b9050919050565b7f50726f64756374206973206e6f74206f776e656420627920726571756573746560008201527f7200000000000000000000000000000000000000000000000000000000000000602082015250565b6000611192602183610fe1565b915061119d82611136565b604082019050919050565b600060208201905081810360008301526111c181611185565b9050919050565b600067ffffffffffffffff8211156111e3576111e2610dae565b5b602082029050919050565b600080fd5b60008151905061120281610b45565b92915050565b600061121b611216846111c8565b610e0e565b90508060208402830185811115611235576112346111ee565b5b835b8181101561125e578061124a88826111f3565b845260208401935050602081019050611237565b5050509392505050565b600082601f83011261127d5761127c610d93565b5b600661128a848285611208565b91505092915050565b600060c082840312156112a9576112a8610b31565b5b60006112b784828501611268565b91505092915050565b7f4e487b7100000000000000000000000000000000000000000000000000000000600052603260045260246000fd5b7f4e487b7100000000000000000000000000000000000000000000000000000000600052601160045260246000fd5b600061132982610bfa565b91507fffffffffffffffffffffffffffffffffffffffffffffffffffffffffffffffff820361135b5761135a6112ef565b5b60018201905091905056fea26469706673582212201f839262d27174d1ca798a7951f206f49ab2e89450d8f0b2df784b2ff08cc8c464736f6c634300080d0033",
  "immutableReferences": {},
  "source": "// SPDX-License-Identifier: MIT\npragma solidity >=0.5.22 <=0.9.0;\n\ncontract Supply_Chain {\n    enum  State    {NOTVIEWED,ACCEPTED,DECLINED,PENDING,PAID}\n    struct Part {\n        address supplier;\n        string manufacturedate;\n        string part_type;\n        string serialno;\n        uint256 price;\n        \n    }\n    struct Product {\n       address manufacturer;\n        string serial_number;\n        string product_type;\n        string manufacturedate;\n        bytes32[6] parts;\n        uint256 price;\n    }\n\n    mapping(bytes32 => Product) public product;\n    mapping(bytes32 => Part) public part;\n      bytes32[] public arry;\n      State public state;\n    function getParts(bytes32 product_hash)\n        public\n        view\n        returns (bytes32[6] memory)\n    {}\n}\n\ncontract ownwership {\n      enum  State   {NOTVIEWED,ACCEPTED,DECLINED,PENDING,PAID}\n    enum Operation {PART,PRODUCT}\n    mapping(bytes32=>address) public currentPartOwner;\n    mapping(bytes32=>address) public currentProductOwner;\n    event TransferPartOwnership(bytes32 indexed p,address indexed account );\n    event TransferProductOwnership(bytes32 indexed p,address indexed account );\n    Supply_Chain private SC;\n    \n    constructor(address product_contract){\n        SC = Supply_Chain(product_contract);\n\n    }\n  \n    function add_ownership(uint op_type,bytes32 p_hash) public returns (bool sucess){\n        if(op_type==uint (Operation.PART)){\n            address manufacturer;\n             \n           \n            (manufacturer, , , , ) = SC.part(p_hash);\n            require(currentPartOwner[p_hash]==address(0),\"part is already registered\");\n            require(manufacturer==msg.sender,\"part was not made by requester\");\n           \n            currentPartOwner[p_hash]=msg.sender;\n            emit TransferPartOwnership(p_hash,msg.sender);\n                return true;\n        }\n        else if (op_type==uint (Operation.PRODUCT)){\n                address manufacturer;\n                (manufacturer, , , ,) = SC.product(p_hash);\n               require(currentProductOwner[p_hash]==address(0),\"part is already registered\");\n            require(manufacturer==msg.sender,\"part was not made by requester\");\n            currentProductOwner[p_hash]=msg.sender;\n            emit TransferProductOwnership(p_hash,msg.sender); \n            return true;\n        }\n    }\n\n    function changeOwnership(uint op_type, bytes32 p_hash, address to) public returns (bool sucess) {\n      \n        if(op_type == uint(Operation.PART)){\n            require(currentPartOwner[p_hash] == msg.sender, \"Part is not owned by requester\");\n            currentPartOwner[p_hash] = to;\n                 \n             emit TransferPartOwnership(p_hash, to);\n             return true;\n        } else if (op_type == uint(Operation.PRODUCT)){\n            require(currentProductOwner[p_hash] == msg.sender, \"Product is not owned by requester\");\n            currentProductOwner[p_hash] = to;\n            emit TransferProductOwnership(p_hash, to);\n            \n            bytes32[6] memory part_list = SC.getParts(p_hash);\n            for(uint i = 0; i < part_list.length; i++){\n                currentPartOwner[part_list[i]] = to;\n                emit TransferPartOwnership(part_list[i], to);\n            }\n            return true;\n        }\n    }\n    function currentowner(bytes32 P)public view returns(address){\n        return currentPartOwner[P];\n\n    }\n}\n",
  "sourcePath": "/home/surajkumarprajapati/Desktop/SupplyChain/2_supplychain/contracts/changeownership.sol",
  "compiler": {
    "name": "solc",
    "version": "0.8.13+commit.abaa5c0e.Emscripten.clang"
  },
  "schemaVersion": "3.4.7",
  "updatedAt": "2022-07-02T10:43:55.390Z",
  "networkType": "ethereum",
  "devdoc": {
    "kind": "dev",
    "methods": {},
    "version": 1
  },
  "userdoc": {
    "kind": "user",
    "methods": {},
    "version": 1
  }
}