{
  "contractName": "Supply_Chain",
  "abi": [
    {
      "anonymous": false,
      "inputs": [
        {
          "indexed": false,
          "internalType": "address",
          "name": "reciver",
          "type": "address"
        },
        {
          "indexed": false,
          "internalType": "address",
          "name": "sender",
          "type": "address"
        },
        {
          "indexed": false,
          "internalType": "uint256",
          "name": "amount",
          "type": "uint256"
        },
        {
          "indexed": false,
          "internalType": "bytes32",
          "name": "",
          "type": "bytes32"
        }
      ],
      "name": "paymentDone",
      "type": "event"
    },
    {
      "inputs": [
        {
          "internalType": "uint256",
          "name": "",
          "type": "uint256"
        }
      ],
      "name": "arr",
      "outputs": [
        {
          "internalType": "bytes32",
          "name": "",
          "type": "bytes32"
        }
      ],
      "stateMutability": "view",
      "type": "function",
      "constant": true
    },
    {
      "inputs": [
        {
          "internalType": "uint256",
          "name": "",
          "type": "uint256"
        }
      ],
      "name": "arry",
      "outputs": [
        {
          "internalType": "bytes32",
          "name": "",
          "type": "bytes32"
        }
      ],
      "stateMutability": "view",
      "type": "function",
      "constant": true
    },
    {
      "inputs": [
        {
          "internalType": "bytes32",
          "name": "",
          "type": "bytes32"
        }
      ],
      "name": "order",
      "outputs": [
        {
          "internalType": "address",
          "name": "manufactureradd",
          "type": "address"
        },
        {
          "internalType": "string",
          "name": "part_type",
          "type": "string"
        },
        {
          "internalType": "string",
          "name": "deliverOn",
          "type": "string"
        },
        {
          "internalType": "string",
          "name": "orderdate",
          "type": "string"
        },
        {
          "internalType": "string",
          "name": "quantity",
          "type": "string"
        },
        {
          "internalType": "uint256",
          "name": "time",
          "type": "uint256"
        },
        {
          "internalType": "enum Supply_Chain.State",
          "name": "state",
          "type": "uint8"
        }
      ],
      "stateMutability": "view",
      "type": "function",
      "constant": true
    },
    {
      "inputs": [
        {
          "internalType": "bytes32",
          "name": "",
          "type": "bytes32"
        }
      ],
      "name": "part",
      "outputs": [
        {
          "internalType": "address",
          "name": "supplier",
          "type": "address"
        },
        {
          "internalType": "string",
          "name": "manufacturedate",
          "type": "string"
        },
        {
          "internalType": "string",
          "name": "part_type",
          "type": "string"
        },
        {
          "internalType": "string",
          "name": "serialno",
          "type": "string"
        },
        {
          "internalType": "uint256",
          "name": "price",
          "type": "uint256"
        },
        {
          "internalType": "enum Supply_Chain.State",
          "name": "state",
          "type": "uint8"
        }
      ],
      "stateMutability": "view",
      "type": "function",
      "constant": true
    },
    {
      "inputs": [
        {
          "internalType": "bytes32",
          "name": "",
          "type": "bytes32"
        }
      ],
      "name": "part_detail",
      "outputs": [
        {
          "internalType": "bytes32",
          "name": "orderhash",
          "type": "bytes32"
        },
        {
          "internalType": "address",
          "name": "supplier",
          "type": "address"
        },
        {
          "internalType": "uint256",
          "name": "partPrice",
          "type": "uint256"
        },
        {
          "internalType": "string",
          "name": "parttype",
          "type": "string"
        },
        {
          "internalType": "enum Supply_Chain.State",
          "name": "state",
          "type": "uint8"
        }
      ],
      "stateMutability": "view",
      "type": "function",
      "constant": true
    },
    {
      "inputs": [
        {
          "internalType": "bytes32",
          "name": "",
          "type": "bytes32"
        }
      ],
      "name": "product",
      "outputs": [
        {
          "internalType": "address",
          "name": "manufacturer",
          "type": "address"
        },
        {
          "internalType": "string",
          "name": "serial_number",
          "type": "string"
        },
        {
          "internalType": "string",
          "name": "product_type",
          "type": "string"
        },
        {
          "internalType": "string",
          "name": "manufacturedate",
          "type": "string"
        },
        {
          "internalType": "uint256",
          "name": "price",
          "type": "uint256"
        }
      ],
      "stateMutability": "view",
      "type": "function",
      "constant": true
    },
    {
      "inputs": [
        {
          "internalType": "string",
          "name": "part_type",
          "type": "string"
        },
        {
          "internalType": "string",
          "name": "deliverOn",
          "type": "string"
        },
        {
          "internalType": "string",
          "name": "orderdate",
          "type": "string"
        },
        {
          "internalType": "string",
          "name": "quantity",
          "type": "string"
        }
      ],
      "name": "create_order",
      "outputs": [
        {
          "internalType": "bytes32",
          "name": "",
          "type": "bytes32"
        }
      ],
      "stateMutability": "nonpayable",
      "type": "function"
    },
    {
      "inputs": [
        {
          "internalType": "bytes32",
          "name": "orderhash",
          "type": "bytes32"
        }
      ],
      "name": "view_order",
      "outputs": [
        {
          "components": [
            {
              "internalType": "address",
              "name": "manufactureradd",
              "type": "address"
            },
            {
              "internalType": "string",
              "name": "part_type",
              "type": "string"
            },
            {
              "internalType": "string",
              "name": "deliverOn",
              "type": "string"
            },
            {
              "internalType": "string",
              "name": "orderdate",
              "type": "string"
            },
            {
              "internalType": "string",
              "name": "quantity",
              "type": "string"
            },
            {
              "internalType": "uint256",
              "name": "time",
              "type": "uint256"
            },
            {
              "internalType": "enum Supply_Chain.State",
              "name": "state",
              "type": "uint8"
            }
          ],
          "internalType": "struct Supply_Chain.Order",
          "name": "",
          "type": "tuple"
        }
      ],
      "stateMutability": "nonpayable",
      "type": "function"
    },
    {
      "inputs": [],
      "name": "accept_order",
      "outputs": [
        {
          "internalType": "bytes32[]",
          "name": "",
          "type": "bytes32[]"
        }
      ],
      "stateMutability": "view",
      "type": "function",
      "constant": true
    },
    {
      "inputs": [
        {
          "internalType": "bytes32",
          "name": "orderhash",
          "type": "bytes32"
        },
        {
          "internalType": "string",
          "name": "manufacturedate",
          "type": "string"
        },
        {
          "internalType": "string",
          "name": "serialno",
          "type": "string"
        },
        {
          "internalType": "uint256",
          "name": "price",
          "type": "uint256"
        }
      ],
      "name": "make_part",
      "outputs": [
        {
          "internalType": "bytes32",
          "name": "partHash",
          "type": "bytes32"
        }
      ],
      "stateMutability": "nonpayable",
      "type": "function"
    },
    {
      "inputs": [],
      "name": "partowned",
      "outputs": [
        {
          "internalType": "bytes32[]",
          "name": "",
          "type": "bytes32[]"
        }
      ],
      "stateMutability": "view",
      "type": "function",
      "constant": true
    },
    {
      "inputs": [
        {
          "internalType": "bytes32",
          "name": "orderhash",
          "type": "bytes32"
        },
        {
          "internalType": "bytes32",
          "name": "partHash",
          "type": "bytes32"
        }
      ],
      "name": "partrecepit",
      "outputs": [
        {
          "internalType": "bytes32",
          "name": "",
          "type": "bytes32"
        }
      ],
      "stateMutability": "nonpayable",
      "type": "function"
    },
    {
      "inputs": [
        {
          "internalType": "bytes32",
          "name": "orderhash",
          "type": "bytes32"
        }
      ],
      "name": "getpartrecepit",
      "outputs": [
        {
          "components": [
            {
              "internalType": "bytes32",
              "name": "orderhash",
              "type": "bytes32"
            },
            {
              "internalType": "address",
              "name": "supplier",
              "type": "address"
            },
            {
              "internalType": "uint256",
              "name": "partPrice",
              "type": "uint256"
            },
            {
              "internalType": "string",
              "name": "parttype",
              "type": "string"
            },
            {
              "internalType": "enum Supply_Chain.State",
              "name": "state",
              "type": "uint8"
            }
          ],
          "internalType": "struct Supply_Chain.part_recepit",
          "name": "",
          "type": "tuple"
        }
      ],
      "stateMutability": "view",
      "type": "function",
      "constant": true
    },
    {
      "inputs": [
        {
          "internalType": "address payable",
          "name": "receiver",
          "type": "address"
        },
        {
          "internalType": "bytes32",
          "name": "orderh",
          "type": "bytes32"
        }
      ],
      "name": "getparts",
      "outputs": [
        {
          "internalType": "bool",
          "name": "",
          "type": "bool"
        }
      ],
      "stateMutability": "payable",
      "type": "function",
      "payable": true
    },
    {
      "inputs": [
        {
          "internalType": "string",
          "name": "serialno",
          "type": "string"
        },
        {
          "internalType": "string",
          "name": "product_type",
          "type": "string"
        },
        {
          "internalType": "string",
          "name": "creation_date",
          "type": "string"
        },
        {
          "internalType": "string[2]",
          "name": "parts_array",
          "type": "string[2]"
        },
        {
          "internalType": "uint256",
          "name": "price",
          "type": "uint256"
        }
      ],
      "name": "make_Product",
      "outputs": [
        {
          "internalType": "bytes32",
          "name": "",
          "type": "bytes32"
        }
      ],
      "stateMutability": "nonpayable",
      "type": "function"
    },
    {
      "inputs": [
        {
          "internalType": "bytes32",
          "name": "product_hash",
          "type": "bytes32"
        }
      ],
      "name": "getProductParts",
      "outputs": [
        {
          "internalType": "string[2]",
          "name": "",
          "type": "string[2]"
        }
      ],
      "stateMutability": "view",
      "type": "function",
      "constant": true
    },
    {
      "inputs": [
        {
          "internalType": "bytes32",
          "name": "parthash",
          "type": "bytes32"
        }
      ],
      "name": "getPartInfo",
      "outputs": [
        {
          "components": [
            {
              "internalType": "address",
              "name": "supplier",
              "type": "address"
            },
            {
              "internalType": "string",
              "name": "manufacturedate",
              "type": "string"
            },
            {
              "internalType": "string",
              "name": "part_type",
              "type": "string"
            },
            {
              "internalType": "string",
              "name": "serialno",
              "type": "string"
            },
            {
              "internalType": "uint256",
              "name": "price",
              "type": "uint256"
            },
            {
              "internalType": "enum Supply_Chain.State",
              "name": "state",
              "type": "uint8"
            }
          ],
          "internalType": "struct Supply_Chain.Part",
          "name": "detail",
          "type": "tuple"
        }
      ],
      "stateMutability": "view",
      "type": "function",
      "constant": true
    }
  ],
  "bytecode": "0x608060405234801561001057600080fd5b50613af2806100206000396000f3fe6080604052600436106100fe5760003560e01c80637281a039116100955780639a069a42116100645780639a069a42146103db578063b224149c14610406578063d760fa3d14610447578063d9a2130814610484578063e80160ab146104af576100fe565b80637281a039146102de57806379f3c588146103205780639670c79c1461035d578063977990801461039a576100fe565b80634c9b90e9116100d15780634c9b90e9146101f7578063622f06941461022757806371e5ee5f14610264578063724e203d146102a1576100fe565b8063070660e51461010357806320ff3f4e1461014057806333eae6c61461017d5780634bc8e47b146101ba575b600080fd5b34801561010f57600080fd5b5061012a60048036038101906101259190612713565b6104f2565b6040516101379190612759565b60405180910390f35b34801561014c57600080fd5b50610167600480360381019061016291906127a0565b610516565b604051610174919061291c565b60405180910390f35b34801561018957600080fd5b506101a4600480360381019061019f9190612b47565b61069e565b6040516101b19190612759565b60405180910390f35b3480156101c657600080fd5b506101e160048036038101906101dc91906127a0565b6108f8565b6040516101ee9190612d7e565b60405180910390f35b610211600480360381019061020c9190612dde565b610a5c565b60405161021e9190612e39565b60405180910390f35b34801561023357600080fd5b5061024e60048036038101906102499190612e54565b610cdd565b60405161025b9190612759565b60405180910390f35b34801561027057600080fd5b5061028b60048036038101906102869190612713565b610efd565b6040516102989190612759565b60405180910390f35b3480156102ad57600080fd5b506102c860048036038101906102c391906127a0565b610f21565b6040516102d59190612f45565b60405180910390f35b3480156102ea57600080fd5b50610305600480360381019061030091906127a0565b611276565b60405161031796959493929190612fde565b60405180910390f35b34801561032c57600080fd5b5061034760048036038101906103429190613054565b611477565b6040516103549190612759565b60405180910390f35b34801561036957600080fd5b50610384600480360381019061037f91906130f3565b611793565b6040516103919190612759565b60405180910390f35b3480156103a657600080fd5b506103c160048036038101906103bc91906127a0565b611958565b6040516103d29594939291906131ca565b60405180910390f35b3480156103e757600080fd5b506103f0611a43565b6040516103fd91906132d3565b60405180910390f35b34801561041257600080fd5b5061042d600480360381019061042891906127a0565b611a9b565b60405161043e9594939291906132f5565b60405180910390f35b34801561045357600080fd5b5061046e600480360381019061046991906127a0565b611c89565b60405161047b91906133f4565b60405180910390f35b34801561049057600080fd5b50610499611f07565b6040516104a691906132d3565b60405180910390f35b3480156104bb57600080fd5b506104d660048036038101906104d191906127a0565b611f5f565b6040516104e99796959493929190613416565b60405180910390f35b6001818154811061050257600080fd5b906000526020600020016000915090505481565b61051e61242b565b600073ffffffffffffffffffffffffffffffffffffffff166004600084815260200190815260200160002060000160009054906101000a900473ffffffffffffffffffffffffffffffffffffffff1673ffffffffffffffffffffffffffffffffffffffff16036105c3576040517f08c379a00000000000000000000000000000000000000000000000000000000081526004016105ba906134ed565b60405180910390fd5b60046000838152602001908152602001600020600401600280602002604051908101604052809291906000905b828210156106935783820180546106069061353c565b80601f01602080910402602001604051908101604052809291908181526020018280546106329061353c565b801561067f5780601f106106545761010080835404028352916020019161067f565b820191906000526020600020905b81548152906001019060200180831161066257829003601f168201915b5050505050815260200190600101906105f0565b505050509050919050565b600080600090505b60028110156107a95760008482600281106106c4576106c361356d565b5b60200201516040516020016106d9919061359c565b6040516020818303038152906040528051906020012090503373ffffffffffffffffffffffffffffffffffffffff166005600083815260200190815260200160002060000160009054906101000a900473ffffffffffffffffffffffffffffffffffffffff1673ffffffffffffffffffffffffffffffffffffffff1603610795576040517f08c379a000000000000000000000000000000000000000000000000000000000815260040161078c9061360a565b60405180910390fd5b5080806107a190613659565b9150506106a6565b5060006107b78787876121ee565b905060006040518060c001604052803373ffffffffffffffffffffffffffffffffffffffff168152602001898152602001888152602001878152602001868152602001670de0b6b3a76400008661080e91906136a1565b8152509050806004600084815260200190815260200160002060008201518160000160006101000a81548173ffffffffffffffffffffffffffffffffffffffff021916908373ffffffffffffffffffffffffffffffffffffffff160217905550602082015181600101908051906020019061088a929190612452565b5060408201518160020190805190602001906108a7929190612452565b5060608201518160030190805190602001906108c4929190612452565b506080820151816004019060026108dc9291906124d8565b5060a08201518160060155905050819250505095945050505050565b61090061252b565b600260008381526020019081526020016000206040518060a0016040529081600082015481526020016001820160009054906101000a900473ffffffffffffffffffffffffffffffffffffffff1673ffffffffffffffffffffffffffffffffffffffff1673ffffffffffffffffffffffffffffffffffffffff168152602001600282015481526020016003820180546109989061353c565b80601f01602080910402602001604051908101604052809291908181526020018280546109c49061353c565b8015610a115780601f106109e657610100808354040283529160200191610a11565b820191906000526020600020905b8154815290600101906020018083116109f457829003601f168201915b505050505081526020016004820160009054906101000a900460ff166004811115610a3f57610a3e612c91565b5b6004811115610a5157610a50612c91565b5b815250509050919050565b600081838073ffffffffffffffffffffffffffffffffffffffff166002600084815260200190815260200160002060010160009054906101000a900473ffffffffffffffffffffffffffffffffffffffff1673ffffffffffffffffffffffffffffffffffffffff1614610b04576040517f08c379a0000000000000000000000000000000000000000000000000000000008152600401610afb90613747565b60405180910390fd5b833373ffffffffffffffffffffffffffffffffffffffff166003600083815260200190815260200160002060000160009054906101000a900473ffffffffffffffffffffffffffffffffffffffff1673ffffffffffffffffffffffffffffffffffffffff1614610ba9576040517f08c379a0000000000000000000000000000000000000000000000000000000008152600401610ba0906137b3565b60405180910390fd5b600034905080600260008881526020019081526020016000206002015414610c06576040517f08c379a0000000000000000000000000000000000000000000000000000000008152600401610bfd9061381f565b60405180910390fd5b8673ffffffffffffffffffffffffffffffffffffffff166108fc829081150290604051600060405180830381858888f19350505050158015610c4c573d6000803e3d6000fd5b50600060049050806003600089815260200190815260200160002060060160006101000a81548160ff02191690836004811115610c8c57610c8b612c91565b5b02179055507f8872194aef2c35bdaa0eea5f770ce68d7262902a3c74661704a2912c56a88f9e8833348a604051610cc6949392919061389e565b60405180910390a160019550505050505092915050565b600080600560008481526020019081526020016000206004015490506000600560008581526020019081526020016000206002018054610d1c9061353c565b80601f0160208091040260200160405190810160405280929190818152602001828054610d489061353c565b8015610d955780601f10610d6a57610100808354040283529160200191610d95565b820191906000526020600020905b815481529060010190602001808311610d7857829003601f168201915b5050505050905060006005600086815260200190815260200160002060000160009054906101000a900473ffffffffffffffffffffffffffffffffffffffff16905060006003905060006040518060a001604052808981526020018473ffffffffffffffffffffffffffffffffffffffff168152602001868152602001858152602001836004811115610e2b57610e2a612c91565b5b815250905080600260008a81526020019081526020016000206000820151816000015560208201518160010160006101000a81548173ffffffffffffffffffffffffffffffffffffffff021916908373ffffffffffffffffffffffffffffffffffffffff160217905550604082015181600201556060820151816003019080519060200190610ebb929190612452565b5060808201518160040160006101000a81548160ff02191690836004811115610ee757610ee6612c91565b5b0217905550905050879550505050505092915050565b60008181548110610f0d57600080fd5b906000526020600020016000915090505481565b610f29612585565b600060019050806003600085815260200190815260200160002060060160006101000a81548160ff02191690836004811115610f6857610f67612c91565b5b0217905550600360008481526020019081526020016000206040518060e00160405290816000820160009054906101000a900473ffffffffffffffffffffffffffffffffffffffff1673ffffffffffffffffffffffffffffffffffffffff1673ffffffffffffffffffffffffffffffffffffffff168152602001600182018054610ff19061353c565b80601f016020809104026020016040519081016040528092919081815260200182805461101d9061353c565b801561106a5780601f1061103f5761010080835404028352916020019161106a565b820191906000526020600020905b81548152906001019060200180831161104d57829003601f168201915b505050505081526020016002820180546110839061353c565b80601f01602080910402602001604051908101604052809291908181526020018280546110af9061353c565b80156110fc5780601f106110d1576101008083540402835291602001916110fc565b820191906000526020600020905b8154815290600101906020018083116110df57829003601f168201915b505050505081526020016003820180546111159061353c565b80601f01602080910402602001604051908101604052809291908181526020018280546111419061353c565b801561118e5780601f106111635761010080835404028352916020019161118e565b820191906000526020600020905b81548152906001019060200180831161117157829003601f168201915b505050505081526020016004820180546111a79061353c565b80601f01602080910402602001604051908101604052809291908181526020018280546111d39061353c565b80156112205780601f106111f557610100808354040283529160200191611220565b820191906000526020600020905b81548152906001019060200180831161120357829003601f168201915b50505050508152602001600582015481526020016006820160009054906101000a900460ff16600481111561125857611257612c91565b5b600481111561126a57611269612c91565b5b81525050915050919050565b60056020528060005260406000206000915090508060000160009054906101000a900473ffffffffffffffffffffffffffffffffffffffff16908060010180546112bf9061353c565b80601f01602080910402602001604051908101604052809291908181526020018280546112eb9061353c565b80156113385780601f1061130d57610100808354040283529160200191611338565b820191906000526020600020905b81548152906001019060200180831161131b57829003601f168201915b50505050509080600201805461134d9061353c565b80601f01602080910402602001604051908101604052809291908181526020018280546113799061353c565b80156113c65780601f1061139b576101008083540402835291602001916113c6565b820191906000526020600020905b8154815290600101906020018083116113a957829003601f168201915b5050505050908060030180546113db9061353c565b80601f01602080910402602001604051908101604052809291908181526020018280546114079061353c565b80156114545780601f1061142957610100808354040283529160200191611454565b820191906000526020600020905b81548152906001019060200180831161143757829003601f168201915b5050505050908060040154908060050160009054906101000a900460ff16905086565b600080600360008781526020019081526020016000206001016040516020016114a09190613978565b604051602081830303815290604052805190602001209050600073ffffffffffffffffffffffffffffffffffffffff166005600083815260200190815260200160002060000160009054906101000a900473ffffffffffffffffffffffffffffffffffffffff1673ffffffffffffffffffffffffffffffffffffffff161461155d576040517f08c379a0000000000000000000000000000000000000000000000000000000008152600401611554906139e6565b60405180910390fd5b60006003905060006040518060c001604052803373ffffffffffffffffffffffffffffffffffffffff168152602001888152602001600360008b815260200190815260200160002060010180546115b39061353c565b80601f01602080910402602001604051908101604052809291908181526020018280546115df9061353c565b801561162c5780601f106116015761010080835404028352916020019161162c565b820191906000526020600020905b81548152906001019060200180831161160f57829003601f168201915b50505050508152602001878152602001670de0b6b3a76400008761165091906136a1565b815260200183600481111561166857611667612c91565b5b8152509050806005600085815260200190815260200160002060008201518160000160006101000a81548173ffffffffffffffffffffffffffffffffffffffff021916908373ffffffffffffffffffffffffffffffffffffffff16021790555060208201518160010190805190602001906116e4929190612452565b506040820151816002019080519060200190611701929190612452565b50606082015181600301908051906020019061171e929190612452565b506080820151816004015560a08201518160050160006101000a81548160ff0219169083600481111561175457611753612c91565b5b02179055509050506001839080600181540180825580915050600190039060005260206000200160009091909190915055829350505050949350505050565b6000806000905060006117a78787876121ee565b905060006040518060e001604052803373ffffffffffffffffffffffffffffffffffffffff168152602001898152602001888152602001878152602001868152602001610e10426117f89190613a35565b81526020018460048111156118105761180f612c91565b5b8152509050806003600084815260200190815260200160002060008201518160000160006101000a81548173ffffffffffffffffffffffffffffffffffffffff021916908373ffffffffffffffffffffffffffffffffffffffff160217905550602082015181600101908051906020019061188c929190612452565b5060408201518160020190805190602001906118a9929190612452565b5060608201518160030190805190602001906118c6929190612452565b5060808201518160040190805190602001906118e3929190612452565b5060a0820151816005015560c08201518160060160006101000a81548160ff0219169083600481111561191957611918612c91565b5b02179055509050506000829080600181540180825580915050600190039060005260206000200160009091909190915055819350505050949350505050565b60026020528060005260406000206000915090508060000154908060010160009054906101000a900473ffffffffffffffffffffffffffffffffffffffff16908060020154908060030180546119ad9061353c565b80601f01602080910402602001604051908101604052809291908181526020018280546119d99061353c565b8015611a265780601f106119fb57610100808354040283529160200191611a26565b820191906000526020600020905b815481529060010190602001808311611a0957829003601f168201915b5050505050908060040160009054906101000a900460ff16905085565b60606000805480602002602001604051908101604052809291908181526020018280548015611a9157602002820191906000526020600020905b815481526020019060010190808311611a7d575b5050505050905090565b60046020528060005260406000206000915090508060000160009054906101000a900473ffffffffffffffffffffffffffffffffffffffff1690806001018054611ae49061353c565b80601f0160208091040260200160405190810160405280929190818152602001828054611b109061353c565b8015611b5d5780601f10611b3257610100808354040283529160200191611b5d565b820191906000526020600020905b815481529060010190602001808311611b4057829003601f168201915b505050505090806002018054611b729061353c565b80601f0160208091040260200160405190810160405280929190818152602001828054611b9e9061353c565b8015611beb5780601f10611bc057610100808354040283529160200191611beb565b820191906000526020600020905b815481529060010190602001808311611bce57829003601f168201915b505050505090806003018054611c009061353c565b80601f0160208091040260200160405190810160405280929190818152602001828054611c2c9061353c565b8015611c795780601f10611c4e57610100808354040283529160200191611c79565b820191906000526020600020905b815481529060010190602001808311611c5c57829003601f168201915b5050505050908060060154905085565b611c916125ea565b600560008381526020019081526020016000206040518060c00160405290816000820160009054906101000a900473ffffffffffffffffffffffffffffffffffffffff1673ffffffffffffffffffffffffffffffffffffffff1673ffffffffffffffffffffffffffffffffffffffff168152602001600182018054611d159061353c565b80601f0160208091040260200160405190810160405280929190818152602001828054611d419061353c565b8015611d8e5780601f10611d6357610100808354040283529160200191611d8e565b820191906000526020600020905b815481529060010190602001808311611d7157829003601f168201915b50505050508152602001600282018054611da79061353c565b80601f0160208091040260200160405190810160405280929190818152602001828054611dd39061353c565b8015611e205780601f10611df557610100808354040283529160200191611e20565b820191906000526020600020905b815481529060010190602001808311611e0357829003601f168201915b50505050508152602001600382018054611e399061353c565b80601f0160208091040260200160405190810160405280929190818152602001828054611e659061353c565b8015611eb25780601f10611e8757610100808354040283529160200191611eb2565b820191906000526020600020905b815481529060010190602001808311611e9557829003601f168201915b50505050508152602001600482015481526020016005820160009054906101000a900460ff166004811115611eea57611ee9612c91565b5b6004811115611efc57611efb612c91565b5b815250509050919050565b60606001805480602002602001604051908101604052809291908181526020018280548015611f5557602002820191906000526020600020905b815481526020019060010190808311611f41575b5050505050905090565b60036020528060005260406000206000915090508060000160009054906101000a900473ffffffffffffffffffffffffffffffffffffffff1690806001018054611fa89061353c565b80601f0160208091040260200160405190810160405280929190818152602001828054611fd49061353c565b80156120215780601f10611ff657610100808354040283529160200191612021565b820191906000526020600020905b81548152906001019060200180831161200457829003601f168201915b5050505050908060020180546120369061353c565b80601f01602080910402602001604051908101604052809291908181526020018280546120629061353c565b80156120af5780601f10612084576101008083540402835291602001916120af565b820191906000526020600020905b81548152906001019060200180831161209257829003601f168201915b5050505050908060030180546120c49061353c565b80601f01602080910402602001604051908101604052809291908181526020018280546120f09061353c565b801561213d5780601f106121125761010080835404028352916020019161213d565b820191906000526020600020905b81548152906001019060200180831161212057829003601f168201915b5050505050908060040180546121529061353c565b80601f016020809104026020016040519081016040528092919081815260200182805461217e9061353c565b80156121cb5780601f106121a0576101008083540402835291602001916121cb565b820191906000526020600020905b8154815290600101906020018083116121ae57829003601f168201915b5050505050908060050154908060060160009054906101000a900460ff16905087565b6000808490506000849050600084905060008151835185516122109190613a66565b61221a9190613a66565b67ffffffffffffffff81111561223357612232612948565b5b6040519080825280601f01601f1916602001820160405280156122655781602001600182028036833780820191505090505b50905060008190506000805b86518110156122f95786818151811061228d5761228c61356d565b5b602001015160f81c60f81b8383806122a490613659565b9450815181106122b7576122b661356d565b5b60200101907effffffffffffffffffffffffffffffffffffffffffffffffffffffffffffff1916908160001a90535080806122f190613659565b915050612271565b600090505b85518110156123865785818151811061231a5761231961356d565b5b602001015160f81c60f81b83838061233190613659565b9450815181106123445761234361356d565b5b60200101907effffffffffffffffffffffffffffffffffffffffffffffffffffffffffffff1916908160001a905350808061237e90613659565b9150506122fe565b600090505b8451811015612413578481815181106123a7576123a661356d565b5b602001015160f81c60f81b8383806123be90613659565b9450815181106123d1576123d061356d565b5b60200101907effffffffffffffffffffffffffffffffffffffffffffffffffffffffffffff1916908160001a905350808061240b90613659565b91505061238b565b82805190602001209750505050505050509392505050565b60405180604001604052806002905b606081526020019060019003908161243a5790505090565b82805461245e9061353c565b90600052602060002090601f01602090048101928261248057600085556124c7565b82601f1061249957805160ff19168380011785556124c7565b828001600101855582156124c7579182015b828111156124c65782518255916020019190600101906124ab565b5b5090506124d49190612648565b5090565b826002810192821561251a579160200282015b82811115612519578251829080519060200190612509929190612452565b50916020019190600101906124eb565b5b5090506125279190612665565b5090565b6040518060a0016040528060008019168152602001600073ffffffffffffffffffffffffffffffffffffffff16815260200160008152602001606081526020016000600481111561257f5761257e612c91565b5b81525090565b6040518060e00160405280600073ffffffffffffffffffffffffffffffffffffffff1681526020016060815260200160608152602001606081526020016060815260200160008152602001600060048111156125e4576125e3612c91565b5b81525090565b6040518060c00160405280600073ffffffffffffffffffffffffffffffffffffffff168152602001606081526020016060815260200160608152602001600081526020016000600481111561264257612641612c91565b5b81525090565b5b80821115612661576000816000905550600101612649565b5090565b5b80821115612685576000818161267c9190612689565b50600101612666565b5090565b5080546126959061353c565b6000825580601f106126a757506126c6565b601f0160209004906000526020600020908101906126c59190612648565b5b50565b6000604051905090565b600080fd5b600080fd5b6000819050919050565b6126f0816126dd565b81146126fb57600080fd5b50565b60008135905061270d816126e7565b92915050565b600060208284031215612729576127286126d3565b5b6000612737848285016126fe565b91505092915050565b6000819050919050565b61275381612740565b82525050565b600060208201905061276e600083018461274a565b92915050565b61277d81612740565b811461278857600080fd5b50565b60008135905061279a81612774565b92915050565b6000602082840312156127b6576127b56126d3565b5b60006127c48482850161278b565b91505092915050565b600060029050919050565b600081905092915050565b6000819050919050565b600081519050919050565b600082825260208201905092915050565b60005b8381101561282757808201518184015260208101905061280c565b83811115612836576000848401525b50505050565b6000601f19601f8301169050919050565b6000612858826127ed565b61286281856127f8565b9350612872818560208601612809565b61287b8161283c565b840191505092915050565b6000612892838361284d565b905092915050565b6000602082019050919050565b60006128b2826127cd565b6128bc81856127d8565b9350836020820285016128ce856127e3565b8060005b8581101561290a57848403895281516128eb8582612886565b94506128f68361289a565b925060208a019950506001810190506128d2565b50829750879550505050505092915050565b6000602082019050818103600083015261293681846128a7565b905092915050565b600080fd5b600080fd5b7f4e487b7100000000000000000000000000000000000000000000000000000000600052604160045260246000fd5b6129808261283c565b810181811067ffffffffffffffff8211171561299f5761299e612948565b5b80604052505050565b60006129b26126c9565b90506129be8282612977565b919050565b600067ffffffffffffffff8211156129de576129dd612948565b5b6129e78261283c565b9050602081019050919050565b82818337600083830152505050565b6000612a16612a11846129c3565b6129a8565b905082815260208101848484011115612a3257612a31612943565b5b612a3d8482856129f4565b509392505050565b600082601f830112612a5a57612a5961293e565b5b8135612a6a848260208601612a03565b91505092915050565b600067ffffffffffffffff821115612a8e57612a8d612948565b5b602082029050919050565b600080fd5b6000612ab1612aac84612a73565b6129a8565b90508060208402830185811115612acb57612aca612a99565b5b835b81811015612b1257803567ffffffffffffffff811115612af057612aef61293e565b5b808601612afd8982612a45565b85526020850194505050602081019050612acd565b5050509392505050565b600082601f830112612b3157612b3061293e565b5b6002612b3e848285612a9e565b91505092915050565b600080600080600060a08688031215612b6357612b626126d3565b5b600086013567ffffffffffffffff811115612b8157612b806126d8565b5b612b8d88828901612a45565b955050602086013567ffffffffffffffff811115612bae57612bad6126d8565b5b612bba88828901612a45565b945050604086013567ffffffffffffffff811115612bdb57612bda6126d8565b5b612be788828901612a45565b935050606086013567ffffffffffffffff811115612c0857612c076126d8565b5b612c1488828901612b1c565b9250506080612c25888289016126fe565b9150509295509295909350565b612c3b81612740565b82525050565b600073ffffffffffffffffffffffffffffffffffffffff82169050919050565b6000612c6c82612c41565b9050919050565b612c7c81612c61565b82525050565b612c8b816126dd565b82525050565b7f4e487b7100000000000000000000000000000000000000000000000000000000600052602160045260246000fd5b60058110612cd157612cd0612c91565b5b50565b6000819050612ce282612cc0565b919050565b6000612cf282612cd4565b9050919050565b612d0281612ce7565b82525050565b600060a083016000830151612d206000860182612c32565b506020830151612d336020860182612c73565b506040830151612d466040860182612c82565b5060608301518482036060860152612d5e828261284d565b9150506080830151612d736080860182612cf9565b508091505092915050565b60006020820190508181036000830152612d988184612d08565b905092915050565b6000612dab82612c41565b9050919050565b612dbb81612da0565b8114612dc657600080fd5b50565b600081359050612dd881612db2565b92915050565b60008060408385031215612df557612df46126d3565b5b6000612e0385828601612dc9565b9250506020612e148582860161278b565b9150509250929050565b60008115159050919050565b612e3381612e1e565b82525050565b6000602082019050612e4e6000830184612e2a565b92915050565b60008060408385031215612e6b57612e6a6126d3565b5b6000612e798582860161278b565b9250506020612e8a8582860161278b565b9150509250929050565b600060e083016000830151612eac6000860182612c73565b5060208301518482036020860152612ec4828261284d565b91505060408301518482036040860152612ede828261284d565b91505060608301518482036060860152612ef8828261284d565b91505060808301518482036080860152612f12828261284d565b91505060a0830151612f2760a0860182612c82565b5060c0830151612f3a60c0860182612cf9565b508091505092915050565b60006020820190508181036000830152612f5f8184612e94565b905092915050565b612f7081612c61565b82525050565b600082825260208201905092915050565b6000612f92826127ed565b612f9c8185612f76565b9350612fac818560208601612809565b612fb58161283c565b840191505092915050565b612fc9816126dd565b82525050565b612fd881612ce7565b82525050565b600060c082019050612ff36000830189612f67565b81810360208301526130058188612f87565b905081810360408301526130198187612f87565b9050818103606083015261302d8186612f87565b905061303c6080830185612fc0565b61304960a0830184612fcf565b979650505050505050565b6000806000806080858703121561306e5761306d6126d3565b5b600061307c8782880161278b565b945050602085013567ffffffffffffffff81111561309d5761309c6126d8565b5b6130a987828801612a45565b935050604085013567ffffffffffffffff8111156130ca576130c96126d8565b5b6130d687828801612a45565b92505060606130e7878288016126fe565b91505092959194509250565b6000806000806080858703121561310d5761310c6126d3565b5b600085013567ffffffffffffffff81111561312b5761312a6126d8565b5b61313787828801612a45565b945050602085013567ffffffffffffffff811115613158576131576126d8565b5b61316487828801612a45565b935050604085013567ffffffffffffffff811115613185576131846126d8565b5b61319187828801612a45565b925050606085013567ffffffffffffffff8111156131b2576131b16126d8565b5b6131be87828801612a45565b91505092959194509250565b600060a0820190506131df600083018861274a565b6131ec6020830187612f67565b6131f96040830186612fc0565b818103606083015261320b8185612f87565b905061321a6080830184612fcf565b9695505050505050565b600081519050919050565b600082825260208201905092915050565b6000819050602082019050919050565b600061325c8383612c32565b60208301905092915050565b6000602082019050919050565b600061328082613224565b61328a818561322f565b935061329583613240565b8060005b838110156132c65781516132ad8882613250565b97506132b883613268565b925050600181019050613299565b5085935050505092915050565b600060208201905081810360008301526132ed8184613275565b905092915050565b600060a08201905061330a6000830188612f67565b818103602083015261331c8187612f87565b905081810360408301526133308186612f87565b905081810360608301526133448185612f87565b90506133536080830184612fc0565b9695505050505050565b600060c0830160008301516133756000860182612c73565b506020830151848203602086015261338d828261284d565b915050604083015184820360408601526133a7828261284d565b915050606083015184820360608601526133c1828261284d565b91505060808301516133d66080860182612c82565b5060a08301516133e960a0860182612cf9565b508091505092915050565b6000602082019050818103600083015261340e818461335d565b905092915050565b600060e08201905061342b600083018a612f67565b818103602083015261343d8189612f87565b905081810360408301526134518188612f87565b905081810360608301526134658187612f87565b905081810360808301526134798186612f87565b905061348860a0830185612fc0565b61349560c0830184612fcf565b98975050505050505050565b7f50726f6475637420696e6578697374656e740000000000000000000000000000600082015250565b60006134d7601283612f76565b91506134e2826134a1565b602082019050919050565b60006020820190508181036000830152613506816134ca565b9050919050565b7f4e487b7100000000000000000000000000000000000000000000000000000000600052602260045260246000fd5b6000600282049050600182168061355457607f821691505b6020821081036135675761356661350d565b5b50919050565b7f4e487b7100000000000000000000000000000000000000000000000000000000600052603260045260246000fd5b600060208201905081810360008301526135b68184612f87565b905092915050565b7f70617274206e6f7420617661696c61626c650000000000000000000000000000600082015250565b60006135f4601283612f76565b91506135ff826135be565b602082019050919050565b60006020820190508181036000830152613623816135e7565b9050919050565b7f4e487b7100000000000000000000000000000000000000000000000000000000600052601160045260246000fd5b6000613664826126dd565b91507fffffffffffffffffffffffffffffffffffffffffffffffffffffffffffffffff82036136965761369561362a565b5b600182019050919050565b60006136ac826126dd565b91506136b7836126dd565b9250817fffffffffffffffffffffffffffffffffffffffffffffffffffffffffffffffff04831182151516156136f0576136ef61362a565b5b828202905092915050565b7f63686f6f736520726967687420737570706c6965720000000000000000000000600082015250565b6000613731601583612f76565b915061373c826136fb565b602082019050919050565b6000602082019050818103600083015261376081613724565b9050919050565b7f6e6f7420746865207269676874206d616e756661637475726572000000000000600082015250565b600061379d601a83612f76565b91506137a882613767565b602082019050919050565b600060208201905081810360008301526137cc81613790565b9050919050565b7f737570706c696572207072696365206e6f74206d617463686564000000000000600082015250565b6000613809601a83612f76565b9150613814826137d3565b602082019050919050565b60006020820190508181036000830152613838816137fc565b9050919050565b6000819050919050565b600061386461385f61385a84612c41565b61383f565b612c41565b9050919050565b600061387682613849565b9050919050565b60006138888261386b565b9050919050565b6138988161387d565b82525050565b60006080820190506138b3600083018761388f565b6138c06020830186612f67565b6138cd6040830185612fc0565b6138da606083018461274a565b95945050505050565b60008190508160005260206000209050919050565b600081546139058161353c565b61390f8186612f76565b9450600182166000811461392a576001811461393c5761396f565b60ff198316865260208601935061396f565b613945856138e3565b60005b8381101561396757815481890152600182019150602081019050613948565b808801955050505b50505092915050565b6000602082019050818103600083015261399281846138f8565b905092915050565b7f70726f6475637420416c72656164792065786973747300000000000000000000600082015250565b60006139d0601683612f76565b91506139db8261399a565b602082019050919050565b600060208201905081810360008301526139ff816139c3565b9050919050565b7f4e487b7100000000000000000000000000000000000000000000000000000000600052601260045260246000fd5b6000613a40826126dd565b9150613a4b836126dd565b925082613a5b57613a5a613a06565b5b828204905092915050565b6000613a71826126dd565b9150613a7c836126dd565b9250827fffffffffffffffffffffffffffffffffffffffffffffffffffffffffffffffff03821115613ab157613ab061362a565b5b82820190509291505056fea264697066735822122052939bab64b852f8ce4515056960c8ff794a7f21759670c63e9406d209e8e9da64736f6c634300080d0033",
  "immutableReferences": {},
  "source": "// SPDX-License-Identifier: MIT\npragma solidity >=0.5.22 <0.9.0;\n\ncontract Supply_Chain {\n    bytes32[] public arr;\n    bytes32[] public arry;\n    enum State {\n        NOTVIEWED,\n        ACCEPTED,\n        DECLINED,\n        PENDING,\n        PAID\n    }\n    struct Order {\n        address manufactureradd;\n        string part_type;\n        string deliverOn;\n        string orderdate;\n        string quantity;\n        uint256 time;\n        State state;\n    }\n\n    struct Part {\n        address supplier;\n        string manufacturedate;\n        string part_type;\n        string serialno;\n        uint256 price;\n        State state;\n    }\n\n    struct Product {\n        address manufacturer;\n        string serial_number;\n        string product_type;\n        string manufacturedate;\n        string [2] parts;\n        uint256 price;\n    }\n    struct part_recepit {\n        bytes32 orderhash;\n        address supplier;\n        uint256 partPrice;\n        string parttype;\n        State state;\n    }\n    mapping(bytes32 => part_recepit) public part_detail;\n    mapping(bytes32 => Order) public order;\n    mapping(bytes32 => Product) public product;\n    mapping(bytes32 => Part) public part;\n    event paymentDone(address reciver, address sender, uint256 amount, bytes32);\n\n    modifier onlymanufacturer(bytes32 hash) {\n        require(\n            order[hash].manufactureradd == msg.sender,\n            \"not the right manufacturer\"\n        );\n        _;\n    }\n    modifier rightsupplier(bytes32 hash, address receiver) {\n        require(\n            part_detail[hash].supplier == receiver,\n            \"choose right supplier\"\n        );\n        _;\n    }\n\n    //making hash\n    function INFO_AND_HASH(\n        string memory orderdate,\n        string memory part_type,\n        string memory deliverOn\n    ) private pure returns (bytes32) {\n   \n        bytes memory b_s1 = bytes(orderdate);\n        bytes memory b_s2 = bytes(part_type);\n        bytes memory b_s3 = bytes(deliverOn);\n\n        string memory s_full = new string(\n            b_s1.length + b_s2.length + b_s3.length\n        );\n        bytes memory b_full = bytes(s_full);\n        uint256 j = 0;\n        uint256 i;\n        \n        for (i = 0; i < b_s1.length; i++) {\n            b_full[j++] = b_s1[i];\n        }\n        for (i = 0; i < b_s2.length; i++) {\n            b_full[j++] = b_s2[i];\n        }\n        for (i = 0; i < b_s3.length; i++) {\n            b_full[j++] = b_s3[i];\n        }\n        return keccak256(b_full);\n    }\n\n    // creating order\n    function create_order(\n        string memory part_type,\n        string memory deliverOn,\n        string memory orderdate,\n        string memory quantity\n    ) public returns (bytes32) {\n        State state = State.NOTVIEWED;\n        bytes32 order_hash = INFO_AND_HASH(\n            part_type,\n            deliverOn,\n            orderdate\n        );\n        Order memory new_order = Order(\n            msg.sender,\n            part_type,\n            deliverOn,\n            orderdate,\n            quantity,\n            block.timestamp / 3600,\n            state\n        );\n\n        order[order_hash] = new_order;\n        arr.push(order_hash);\n        return order_hash;\n    }\n\n    function view_order(bytes32 orderhash) public returns (Order memory) {\n        State s = State.ACCEPTED;\n        order[orderhash].state = s;\n        return order[orderhash];\n    }\n\n    //accepting the order\n\n    function accept_order() public view returns (bytes32[] memory) {\n        return arr;\n    }\n\n    //making part after order recivied\n    function make_part(\n        bytes32 orderhash,\n        string memory manufacturedate,\n        string memory serialno,\n        uint256 price\n    ) public returns (bytes32 partHash) {\n        // bytes32 part_hash = INFO_AND_HASH(\n        //     order[orderhash].part_type,\n        //     order[orderhash].deliverOn,\n        //     order[orderhash].orderdate\n        // );\n\n bytes32 part_hash  = keccak256(abi.encode(order[orderhash].part_type));\n\n        require(\n            part[part_hash].supplier == address(0),\n            \"product Already exists\"\n        );\n        State state = State.PENDING;\n        Part memory new_part = Part(\n            msg.sender,\n            manufacturedate,\n            order[orderhash].part_type,\n            serialno,\n            price * 10**18,\n            state\n        );\n        part[part_hash] = new_part;\n        arry.push(part_hash);\n        return part_hash;\n    }\n    function partowned() public view returns(bytes32[] memory){\n        return arry;\n    }\n    //after making part ,configuring part receipt\n    function partrecepit(bytes32 orderhash, bytes32 partHash)\n        public\n        returns (bytes32)\n    {\n        uint256 price = part[partHash].price;\n        string memory parttype = part[partHash].part_type;\n        address supplier = part[partHash].supplier;\n        State state = State.PENDING;\n        part_recepit memory recepit = part_recepit(\n            orderhash,\n            supplier,\n            price,\n            parttype,\n            state\n        );\n        part_detail[orderhash] = recepit;\n        return orderhash;\n    }\n\n    function getpartrecepit(bytes32 orderhash)\n        public\n        view\n        returns (part_recepit memory)\n    {\n        return part_detail[orderhash];\n    }\n\n    //making payment to get part\n    function getparts(address payable receiver, bytes32 orderh)\n        external\n        payable\n        rightsupplier(orderh, receiver)\n        onlymanufacturer(orderh)\n        returns (bool)\n    {\n        uint256 amount = msg.value;\n        require(\n            part_detail[orderh].partPrice == amount,\n            \"supplier price not matched\"\n        );\n\n        receiver.transfer(amount);\n        State state = State.PAID;\n        order[orderh].state = state;\n        emit paymentDone(receiver, msg.sender, msg.value, orderh);\n        return true;\n    }\n\n    function make_Product(\n        string memory serialno,\n        string memory product_type,\n        string memory creation_date,\n        string [2] memory parts_array,\n        uint256 price\n    ) public returns (bytes32) {\n        for (uint256 index = 0; index < parts_array.length; index++) {\n\n                bytes32 part_hash  = keccak256(abi.encode(parts_array[index]));\n\n            require(\n                part[part_hash].supplier != msg.sender,\n                \"part not available\"\n            );\n        }\n        bytes32 product_hash = INFO_AND_HASH(\n            serialno,\n            product_type,\n            creation_date\n        );\n\n        Product memory new_product = Product(\n            msg.sender,\n            serialno,\n            product_type,\n            creation_date,\n            parts_array,\n            price * 10**18\n        );\n\n        product[product_hash] = new_product;\n\n        return product_hash;\n    }\n\n    function getProductParts(bytes32 product_hash)\n        public\n        view\n        returns (string [2] memory)\n    {\n        require(\n            product[product_hash].manufacturer != address(0),\n            \"Product inexistent\"\n        );\n        return product[product_hash].parts;\n    }\n\n    function getPartInfo(bytes32 parthash)\n        public\n        view\n        returns (Part memory detail)\n    {\n        return part[parthash];\n    }\n}",
  "sourcePath": "/home/surajkumarprajapati/Desktop/SupplyChain/2_supplychain/contracts/supplychain.sol",
  "compiler": {
    "name": "solc",
    "version": "0.8.13+commit.abaa5c0e.Emscripten.clang"
  },
  "schemaVersion": "3.4.7",
  "updatedAt": "2022-07-02T10:43:55.298Z",
  "networkType": "ethereum",
  "devdoc": {
    "kind": "dev",
    "methods": {},
    "version": 1
  },
  "userdoc": {
    "kind": "user",
    "methods": {},
    "version": 1
  }
}